S00B00007072312E7372656306
S113000034C04EC04DC04CC04BC04AC049C048C0AB
S113001047C046C045C044C043C042C041C040C0C0
S11300203FC03EC03DC0B8C5BAC5BCC5BEC5C0C54D
S1130030C2C5C4C5C6C5C8C525C628C62BC62EC6D6
S113004031C634C637C6F2C6F3C6F4C6F5C6F6C61C
S1130050F7C6F8C6F9C6FAC661C765C76CC76DC7E7
S11300606EC76FC770C771C772C711241FBECFE5B3
S1130070D4E0DEBFCDBF11E0A0E6B0E0EEE5F1E1F3
S113008002C005900D92AC33B107D9F721E0ACE37F
S1130090B1E001C01D92A935B207E1F7CBD75DC825
S11300A0AFCF83B984E886BF06B607FEFDCF91B112
S11300B0987F983129F081E0983219F480E008950E
S11300C080E00895CF9394EA96BF06B607FEFDCF6D
S11300D091B1987F983011F0903149F4C62FE1DF47
S11300E0813029F08C2FDDDF94E996BF03C084E9C9
S11300F086BF81E0CF9108951F93CF93DF93182F8C
S1130100C62FCC60D82FD07FDC2B6D2F8EE4DADFA6
S11301106D2F6B7F8EE4D6DF2AE12A95F1F700C0BC
S113012020E1129FC0011124C82B6C2F8EE4CADF7A
S11301306C2F6B7F8EE4C6DF113051F48FE798E3A8
S113014021E0815090402040E1F700C0000004C04D
S113015085E88A95F1F7000080E090E0DF91CF9187
S11301601F9108950F931F93CF93DF939C018436BF
S1130170910554F164E670E09FD7FB014CE9460316
S1130180C001479F900D1124280F391FC9016AE04F
S113019070E092D78B0146EF4603E001479FD00DF4
S11301A01124C20FD31FE55DFE4F61E08081A4DFFF
S11301B0F801E55DFE4F61E080819EDFC55DDE4FA5
S11301C061E0888199DF16C06AE070E075D746EF78
S11301D04603E001479FD00D1124C20FD31FFB013A
S11301E0E55DFE4F61E0808187DFC55DDE4F61E044
S11301F0888182DF80E090E0DF91CF911F910F91A1
S113020008950F931F93CF93FC018081882371F08D
S11302108F01C0E0CF5F61E06FDFF801EC0FF11DEB
S11302208081882321F0CF3FA9F701C0C0E08C2F43
S113023090E0CF911F910F910895623049F4805C52
S113024060E0806859DF85E38A95F1F7000008953E
S113025060E0806851DF85E38A95F1F70000089536
S113026080913E01813041F480913D0181110BC0A8
S113027081E080933D01089580913D01863019F419
S113028087E080933D01089580914801823009F10F
S113029028F4882341F0813089F00895833029F1CE
S11302A0843071F10895919A82B3837F82BB8FE188
S11302B09EE40197F1F700C00000089582B38A60BC
S11302C082BB92988FE19EE40197F1F700C0000091
S11302D0089582B38E6082BB82B382BB8FE19EE4B9
S11302E00197F1F700C000000895939A82B3897FC3
S11302F082BB8FE19EE40197F1F700C000000895EE
S113030082B38C6082BB91988FE19EE40197F1F7F0
S113031000C0000008958130910541F484E0809389
S11303204801B2DF81E080934001089540973CF09A
S113033083E080933D01109254011092530108957B
S1130340949881E08093490108958130910511F4D6
S1130350F7DF0895449739F4109254011092530131
S113036084E080933D010895949A8FE097E2019789
S1130370F1F700C000000895823051F128F4882379
S113038049F0813081F008958330B9F1843009F463
S113039049C008951092430180E69AEE90936D004F
S11303A080936C00089581E080934301209166005E
S11303B030916700032E000C440B550B60E67AEE77
S11303C080E090E08CD630936D0020936C0008950B
S11303D081E0809343012091640030916500032EF5
S11303E0000C440B550B60E67AEE80E090E077D683
S11303F030936D0020936C00089581E08093430155
S11304002091620030916300032E000C440B550BC5
S113041060E67AEE80E090E062D630936D0020933F
S11304206C00089581E08093430120916000309135
S11304306100032E000C440B550B60E67AEE80E05D
S113044090E04DD630936D0020936C000895813078
S1130450910521F484E090E08FDF0895449739F406
S1130460109254011092530185E080933D01089548
S113047090980895909AB09B03C0109257010895E4
S113048081E0809357010895CF93DF93EC010197A6
S113049021F482E08093400167DF8091570181302D
S11304A069F486E080934001109254011092530144
S11304B010924301DFDF87E080933D018091680063
S11304C090916900843191052CF420913F012F5FB4
S11304D020933F014F971CF010923F0111C080916F
S11304E03F01863068F084E080934001109254010B
S11304F01092530110924301BDDF87E080933D01C8
S11305002B974CF110925401109253012091440105
S1130510309145018091480190E08217930741F0A2
S113052020934801B1DE809144019091450124DF7C
S11305308091440190914501892B69F410925401F2
S1130540109253011092430180E090E015DF92DF96
S113055087E080933D01DF91CF910895CF93DF939E
S1130560EC018130910571F483E080934001109295
S1130570430180E090E000DF7DDF81E0809348016B
S113058083DE09C08C33910511F4DADE12C08B3599
S113059091050CF0E9DEC53BD1055CF010924801F1
S11305A073DE109254011092530110923D01109287
S11305B03E01DF91CF910895CF93DF93EC01813019
S11305C0910561F41092430180E090E0D5DE52DFA2
S11305D0CBDE81E08093480157DE08C08E3191055F
S11305E011F4AEDE0FC0CD970CF0BEDECB35D105D5
S11305F04CF01092480148DE1092540110925301BD
S113060010923D01DF91CF910895CF93C82F80912F
S11306103E018823A9F18C2F90E020E081379207D6
S1130620C1F4209144013091450121503109121641
S113063013062CF430934501209344010AC0109210
S113064045011092440110923E0183579040B9F441
S113065058C08357904099F480914401909145018A
S11306600196853091052CF49093450180934401C3
S113067006C084E090E09093450180934401F0DD4E
S113068080913D0181110DC08C2F90E081579040E5
S113069041F480913C018F5F80933C0160E081E0F4
S11306A02BDD8C2F90E020E08537920751F42091C8
S11306B06A0030916B002150310930936B00209314
S11306C06A0020E0873A920751F420916A00309141
S11306D06B002F5F3F4F30936B0020936A00875766
S11306E09040A9F480913E01811111C081E0809372
S11306F03E0184E090E09093450180934401B0DD95
S113070006C080914401909145010196ADCFCF91EF
S11307100895CF93DF93C82FD0E020E0C537D207E8
S1130720C1F480916600909167000A978A30910520
S11307302CF090936700809366000BC08AE090E0F1
S1130740909367008093660080E0C73AD807C9F4A5
S11307502DC020E0C73AD207A1F4809166009091A1
S113076067000A96883E23E092072CF49093670072
S11307708093660006C08EED93E0909367008093AB
S1130780660080E0C137D80741F480913C018F5F57
S113079080933C0160E081E0AFDCC357D04061F45A
S11307A010923C0160E081E0A7DC06C08091660005
S11307B0909167000A96DACFDF91CF910895CF9395
S11307C0DF93C82FD0E020E0C537D207C1F4809171
S11307D06400909165000A978A3091052CF09093FB
S11307E06500809364000BC08AE090E090936500FC
S11307F08093640080E0C73AD807C9F42DC020E094
S1130800C73AD207A1F480916400909165000A96DA
S1130810883E23E092072CF4909365008093640053
S113082006C08EED93E0909365008093640080E0B1
S1130830C137D80741F480913C018F5F80933C011C
S113084060E081E059DCC357D04061F410923C0170
S113085060E081E051DC06C0809164009091650005
S11308600A96DACFDF91CF910895CF93DF93C82F03
S1130870D0E020E0C537D207C1F4809162009091A6
S113088063000A978A3091052CF09093630080935B
S113089062000BC08AE090E0909363008093620052
S11308A080E0C73AD807C9F42DC020E0C73AD20780
S11308B0A1F480916200909163000A96883E23E03F
S11308C092072CF4909363008093620006C08EED2F
S11308D093E0909363008093620080E0C137D8076F
S11308E041F480913C018F5F80933C0160E081E0A2
S11308F003DCC357D04061F410923C0160E081E016
S1130900FBDB06C080916200909163000A96DACF07
S1130910DF91CF910895CF93DF93C82FD0E020E0EB
S1130920C537D207C1F480916000909161000A97A5
S11309308A3091052CF090936100809360000BC085
S11309408AE090E0909361008093600080E0C73A71
S1130950D807C9F42DC020E0C73AD207A1F480918A
S11309606000909161000A96883E23E092072CF47F
S1130970909361008093600006C08EED93E09093A5
S113098061008093600080E0C137D80741F4809112
S11309903C018F5F80933C0160E081E0ADDBC35795
S11309A0D04061F410923C0160E081E0A5DB06C018
S11309B080916000909161000A96DACFDF91CF9127
S11309C00895CF93DF93C82FD0E080E0C337D807D2
S11309D041F410923C011092480156DC60E081E041
S11309E08BDB90E0C137D90759F480913C018F5FCC
S11309F080933C011092480147DC60E081E07CDB9D
S1130A0080E0C537D80739F480914801882379F00C
S1130A10815080934801C75AD04039F480914801ED
S1130A20843018F48F5F809348012EDC06C025E7DC
S1130A3030E0275A3040C9F7F5CFDF91CF910895C0
S1130A40CF93DF93C82FD0E020E0C337D20761F4FF
S1130A5010923C0110924201109241011092430104
S1130A6009DD60E081E048DB80E0C137D80779F434
S1130A7080913C018F5F80933C011092420110925F
S1130A80410110924301F6DC60E081E035DB20E0B7
S1130A90C537D207A1F480914101909142010A9790
S1130AA08A3091052CF0909342018093410107C054
S1130AB0109242011092410110924301DBDCC75AAB
S1130AC0D040B1F480914101909142010A969093F3
S1130AD042018093410121E020934301883E9340E9
S1130AE05CF08EED93E0909342018093410104C049
S1130AF080914301813089F4209141013091420178
S1130B00032E000C440B550B60E67AEE80E090E077
S1130B10E6D230936D0020936C00DF91CF9108955D
S1130B20CF93DF93C82FD0E080E0C337D80731F4E8
S1130B3010923C0119DC60E081E0DEDA80E0C1372C
S1130B40D80749F480913C018F5F80933C010CDC11
S1130B5060E081E0D1DA80E0C537D80709F404DC2D
S1130B60C75AD04009F4ECDBDF91CF91089590E0AF
S1130B708357904029F410923C0160E081E0BCDA94
S1130B800895E0913C014E2F50E049305105F0F4B6
S1130B90FA01ED5EFF4F099490E037DD089590E08F
S1130BA0B8DD089590E00BDE089590E05EDE0895D0
S1130BB090E0B1DE089590E004DF089590E040DF16
S1130BC0089590E0ADDF089590E0D1DF0895B199E4
S1130BD003C085E790E0D5DFB29903C087EA90E0CF
S1130BE0D0DFB3990AC0B49904C087E790E0C9DFA5
S1130BF0089581E790E0C5DF0895B49903C083E7C1
S1130C0090E0BFDF089561E080E017DB89E790E0C2
S1130C10F8DA61E085E011DB8091460190914701AB
S1130C20A1DA61E088E009DB8FE790E0EADA61E0CD
S1130C308DE003DB80916A0090916B0093DA62E0AF
S1130C4080E0FBDA85E890E0DCDA62E085E0F5DA62
S1130C50809144019091450185DA62E089E0EDDA02
S1130C6080913D0190E07EDA62E08BE0E6DAE0918B
S1130C7040018E2F90E087309105F8F4FC01E45E8A
S1130C80FF4F09948BE890E0BCDA089580E990E086
S1130C90B8DA089585E990E0B4DA08958AE990E035
S1130CA0B0DA08958FE990E0ACDA089584EA90E030
S1130CB0A8DA089589EA90E0A4DA089561E080E072
S1130CC0BCDA8FEA90E09DDA62E080E0B6DA8BEB82
S1130CD090E097DA62E086E0B0DA80916600909165
S1130CE0670040DA089561E080E0A7DA82EC90E0E2
S1130CF088DA62E080E0A1DA8BEB90E082DA62E0ED
S1130D0086E09BDA80916400909165002BDA089567
S1130D1061E080E092DA8EEC90E073DA62E080E0E9
S1130D208CDA8BEB90E06DDA62E086E086DA809113
S1130D3062009091630016DA089561E080E07DDA44
S1130D408AED90E05EDA62E080E077DA8BEB90E0A7
S1130D5058DA62E086E071DA809160009091610077
S1130D6001DA089561E080E068DA86EE90E049DA1D
S1130D7062E080E062DA81EF90E043DA62E086E0EC
S1130D805CDA8091480190E0EDD9089561E080E05B
S1130D9054DA88EF90E035DA62E080E04EDA8BEBEB
S1130DA090E02FDA62E086E048DA80914101909188
S1130DB04201D8D9089561E080E03FDA83E091E010
S1130DC020DA62E080E039DA8BEB90E01ADA62E054
S1130DD086E033DA80914901813021F480E191E0A9
S1130DE010DA089583E191E00CDA089560E080E080
S1130DF024DA87E191E005DA62E080E01EDA8BEB29
S1130E0090E0FFD962E086E018DA80916800909162
S1130E106900A8D90895E0913C018E2F90E08930B3
S1130E209105A8F4FC01ED5DFF4F0994ECDE0895F3
S1130E3045DF089558DF08956BDF08957EDF089538
S1130E4091DF0895A3DF0895B6DF0895CFDF0895F5
S1130E5086B1876886B987B1806C87B90895369A58
S1130E603699FECF84B195B10895F9DF45E1489FE5
S1130E709001499F300D112460E074E0681B790BE8
S1130E80C90106D1709369006093680008958A359A
S1130E9091057CF4EADF80916800909169004E9797
S1130EA0B4F0109254011092530186E080933D01F6
S1130EB0089585E08093400186E291E08093580193
S1130EC0109254011092530188E080933D010895DB
S1130ED080915501909156010196893E23E0920735
S1130EE02CF4909356018093550132C01092560110
S1130EF01092550180915301909154010196909361
S1130F00540180935301E0913D014E2F50E049304C
S1130F105105F0F4FA01E45DFF4F09941092540175
S1130F201092530115C082E080933D011092540148
S1130F30109253010DC0EFD90BC007DA09C087DA4C
S1130F4007C0A5DF05C0A0DA03C008DB01C034DB9D
S1130F50809152018F5F80935201809150018F5F85
S1130F6080935001809151018F5F80935101909142
S1130F706F00981718F4109251014DDF90915201AF
S1130F8080917000891718F4109252016EDF9091CD
S1130F90500180916E00891718F41092500117DEE9
S1130FA080914301882309F440C080914A019091C3
S1130FB04B01019690934B0180934A01813325E7BD
S1130FC0920728F010924B0110924A0112C020910E
S1130FD06C0030916D002817390758F410924B01BA
S1130FE010924A0182E390E090934F0180934E0166
S1130FF03FDA20914E0130914F0112161306ACF4E2
S113100080914C0190914D01019690934D018093F4
S11310104C01281739074CF410924F0110924E01DD
S113102010924D0110924C0125DA82E08A95F1F775
S113103000C0089580E280B917BA8EE188BB8FEFB3
S113104081BB81E182BB64E28EE43CD860E28EE441
S113105039D82FE788E391E0215080409040E1F7B0
S113106000C0000060E088E247D860E088E044D82F
S113107060E081E041D860E086E03ED860E08CE04A
S11310803BD8E6DE01D960E081E036D821DFFECF2F
S1131090AA1BBB1B51E107C0AA1FBB1FA617B7079A
S11310A010F0A61BB70B881F991F5A95A9F78095B6
S11310B09095BC01CD01089597FB072E16F400947A
S11310C006D077FD08D0E4DF07FC05D03EF4909508
S11310D081959F4F0895709561957F4F0895052ED2
S11310E097FB16F400940FD057FD05D014D007FCDD
S11310F002D046F408C050954095309521953F4F55
S11311004F4F5F4F089590958095709561957F4FEF
S11311108F4F9F4F0895A1E21A2EAA1BBB1BFD01FE
S11311200DC0AA1FBB1FEE1FFF1FA217B307E407C2
S1131130F50720F0A21BB30BE40BF50B661F771F1A
S1131140881F991F1A9469F76095709580959095FA
S11111509B01AC01BD01CF010895F894FFCFBF
S113115EC2015E01E600A00014001400E8FD96141E
S113116EC86E0073006C00660054656D703A0048DA
S113117E6561743A004D6F64653A0049646C6500AC
S113118E5374727400576F726B0053746F70004C0B
S113119E6F7754004E6F4672004F7665724800505A
S11311AE756D702031206D6F64650056616C7565C8
S11311BE3A0050756D702032206D6F646500507565
S11311CE6D702033206D6F64650050756D70203422
S11311DE206D6F6465004D6F746F72205465737467
S11311EE0053706565643A0050756D7020746573B4
S11311FE74210043616E646C652074657374210000
S113120E4F4E004F4646005465737420776F726BD1
S113121E2074656D70006C6F775400303132333446
S10F122E35363738394142434445460008
S9030000FC
